{
  "contractName": "UserContract",
  "abi": [
    {
      "anonymous": false,
      "inputs": [
        {
          "indexed": true,
          "internalType": "uint256",
          "name": "id",
          "type": "uint256"
        },
        {
          "indexed": false,
          "internalType": "string",
          "name": "email",
          "type": "string"
        },
        {
          "indexed": false,
          "internalType": "string",
          "name": "password",
          "type": "string"
        }
      ],
      "name": "UserCreated",
      "type": "event"
    },
    {
      "anonymous": false,
      "inputs": [
        {
          "indexed": true,
          "internalType": "uint256",
          "name": "id",
          "type": "uint256"
        }
      ],
      "name": "UserDeactivated",
      "type": "event"
    },
    {
      "anonymous": false,
      "inputs": [
        {
          "indexed": true,
          "internalType": "uint256",
          "name": "id",
          "type": "uint256"
        },
        {
          "indexed": false,
          "internalType": "string",
          "name": "name",
          "type": "string"
        },
        {
          "indexed": false,
          "internalType": "string",
          "name": "email",
          "type": "string"
        },
        {
          "indexed": false,
          "internalType": "string",
          "name": "password",
          "type": "string"
        },
        {
          "indexed": false,
          "internalType": "bool",
          "name": "isActive",
          "type": "bool"
        },
        {
          "indexed": false,
          "internalType": "uint256",
          "name": "version",
          "type": "uint256"
        }
      ],
      "name": "UserUpdated",
      "type": "event"
    },
    {
      "constant": true,
      "inputs": [
        {
          "internalType": "uint256",
          "name": "",
          "type": "uint256"
        }
      ],
      "name": "latestUserVersion",
      "outputs": [
        {
          "internalType": "uint256",
          "name": "",
          "type": "uint256"
        }
      ],
      "payable": false,
      "stateMutability": "view",
      "type": "function"
    },
    {
      "constant": true,
      "inputs": [
        {
          "internalType": "uint256",
          "name": "",
          "type": "uint256"
        },
        {
          "internalType": "uint256",
          "name": "",
          "type": "uint256"
        }
      ],
      "name": "userRecords",
      "outputs": [
        {
          "internalType": "uint256",
          "name": "id",
          "type": "uint256"
        },
        {
          "internalType": "string",
          "name": "name",
          "type": "string"
        },
        {
          "internalType": "string",
          "name": "email",
          "type": "string"
        },
        {
          "internalType": "string",
          "name": "password",
          "type": "string"
        },
        {
          "internalType": "bool",
          "name": "isActive",
          "type": "bool"
        },
        {
          "internalType": "uint256",
          "name": "version",
          "type": "uint256"
        }
      ],
      "payable": false,
      "stateMutability": "view",
      "type": "function"
    },
    {
      "constant": false,
      "inputs": [
        {
          "internalType": "string",
          "name": "email",
          "type": "string"
        },
        {
          "internalType": "string",
          "name": "password",
          "type": "string"
        }
      ],
      "name": "createUser",
      "outputs": [],
      "payable": false,
      "stateMutability": "nonpayable",
      "type": "function"
    },
    {
      "constant": false,
      "inputs": [
        {
          "internalType": "uint256",
          "name": "id",
          "type": "uint256"
        },
        {
          "internalType": "string",
          "name": "name",
          "type": "string"
        },
        {
          "internalType": "string",
          "name": "email",
          "type": "string"
        },
        {
          "internalType": "string",
          "name": "password",
          "type": "string"
        }
      ],
      "name": "updateUser",
      "outputs": [],
      "payable": false,
      "stateMutability": "nonpayable",
      "type": "function"
    },
    {
      "constant": false,
      "inputs": [
        {
          "internalType": "uint256",
          "name": "id",
          "type": "uint256"
        }
      ],
      "name": "deactivateUser",
      "outputs": [],
      "payable": false,
      "stateMutability": "nonpayable",
      "type": "function"
    },
    {
      "constant": true,
      "inputs": [
        {
          "internalType": "uint256",
          "name": "id",
          "type": "uint256"
        }
      ],
      "name": "getLatestUserData",
      "outputs": [
        {
          "components": [
            {
              "internalType": "uint256",
              "name": "id",
              "type": "uint256"
            },
            {
              "internalType": "string",
              "name": "name",
              "type": "string"
            },
            {
              "internalType": "string",
              "name": "email",
              "type": "string"
            },
            {
              "internalType": "string",
              "name": "password",
              "type": "string"
            },
            {
              "internalType": "bool",
              "name": "isActive",
              "type": "bool"
            },
            {
              "internalType": "uint256",
              "name": "version",
              "type": "uint256"
            }
          ],
          "internalType": "struct UserContract.User",
          "name": "",
          "type": "tuple"
        }
      ],
      "payable": false,
      "stateMutability": "view",
      "type": "function"
    }
  ],
  "bytecode": "0x6080604052600160005534801561001557600080fd5b50610cb4806100256000396000f3fe608060405234801561001057600080fd5b50600436106100625760003560e01c80636a2b1a001461006757806387b162b51461007c578063975a584a1461008f578063a1fd54ee146100a2578063ba2798eb146100d0578063d188efd8146100f0575b600080fd5b61007a6100753660046108bb565b610110565b005b61007a61008a366004610852565b61017d565b61007a61009d3660046108e1565b61024d565b6100b56100b036600461098a565b61031a565b6040516100c796959493929190610b44565b60405180910390f35b6100e36100de3660046108bb565b6104f7565b6040516100c79190610b36565b6101036100fe3660046108bb565b610509565b6040516100c79190610b1e565b60008181526001602081815260408084208054909301928390556002825280842083855290915280832060048101805460ff191690556005810183905590519192909184917ff788abc9a673e15ab3b48d5589668ca7adc0cd0edc6cf70ecdaede82c4167ae591a2505050565b600080546001808201835581835260208181526040808520839055600282528085208386528252808520848155815192830191829052918590529293919290916101ca918385019161071a565b5084516101e0906002830190602088019061071a565b5083516101f6906003830190602087019061071a565b5060048101805460ff191690556005810182905560405183907fa1a1af9c5c29e69f23e5ac29120f6a7ea106635803581b461fab3a26faeae6779061023e9088908890610a9a565b60405180910390a25050505050565b6000848152600160208181526040808420805484019081905560028352818520818652835293208781558651909261028c92908401919088019061071a565b5083516102a2906002830190602087019061071a565b5082516102b8906003830190602086019061071a565b5060048101805460ff191660019081179091556005820183905560405187917f69601c9984cbf52cb418114d4dc352bfdb9c997bedc895f859af72784457ee759161030a918991899189918990610abf565b60405180910390a2505050505050565b600260208181526000938452604080852082529284529282902080546001808301805486519281161561010002600019011694909404601f8101879004870282018701909552848152909491939092918301828280156103bb5780601f10610390576101008083540402835291602001916103bb565b820191906000526020600020905b81548152906001019060200180831161039e57829003601f168201915b50505060028085018054604080516020601f600019610100600187161502019094169590950492830185900485028101850190915281815295969594509092509083018282801561044d5780601f106104225761010080835404028352916020019161044d565b820191906000526020600020905b81548152906001019060200180831161043057829003601f168201915b5050505060038301805460408051602060026001851615610100026000190190941693909304601f81018490048402820184019092528181529495949350908301828280156104dd5780601f106104b2576101008083540402835291602001916104dd565b820191906000526020600020905b8154815290600101906020018083116104c057829003601f168201915b505050506004830154600590930154919260ff1691905086565b60016020526000908152604090205481565b610511610798565b6000828152600160208181526040808420546002808452828620828752845294829020825160c08101845281548152818601805485519781161561010002600019011697909704601f810186900486028701860190945283865291959194909385810193919291908301828280156105ca5780601f1061059f576101008083540402835291602001916105ca565b820191906000526020600020905b8154815290600101906020018083116105ad57829003601f168201915b5050509183525050600282810180546040805160206001841615610100026000190190931694909404601f8101839004830285018301909152808452938101939083018282801561065c5780601f106106315761010080835404028352916020019161065c565b820191906000526020600020905b81548152906001019060200180831161063f57829003601f168201915b505050918352505060038201805460408051602060026001851615610100026000190190941693909304601f81018490048402820184019092528181529382019392918301828280156106f05780601f106106c5576101008083540402835291602001916106f0565b820191906000526020600020905b8154815290600101906020018083116106d357829003601f168201915b5050509183525050600482015460ff16151560208201526005909101546040909101529392505050565b828054600181600116156101000203166002900490600052602060002090601f016020900481019282601f1061075b57805160ff1916838001178555610788565b82800160010185558215610788579182015b8281111561078857825182559160200191906001019061076d565b506107949291506107d0565b5090565b6040518060c0016040528060008152602001606081526020016060815260200160608152602001600015158152602001600081525090565b6107ea91905b8082111561079457600081556001016107d6565b90565b600082601f8301126107fe57600080fd5b813561081161080c82610bda565b610bb3565b9150808252602083016020830185838301111561082d57600080fd5b610838838284610c14565b50505092915050565b803561084c81610c5a565b92915050565b6000806040838503121561086557600080fd5b823567ffffffffffffffff81111561087c57600080fd5b610888858286016107ed565b925050602083013567ffffffffffffffff8111156108a557600080fd5b6108b1858286016107ed565b9150509250929050565b6000602082840312156108cd57600080fd5b60006108d98484610841565b949350505050565b600080600080608085870312156108f757600080fd5b60006109038787610841565b945050602085013567ffffffffffffffff81111561092057600080fd5b61092c878288016107ed565b935050604085013567ffffffffffffffff81111561094957600080fd5b610955878288016107ed565b925050606085013567ffffffffffffffff81111561097257600080fd5b61097e878288016107ed565b91505092959194509250565b6000806040838503121561099d57600080fd5b60006109a98585610841565b92505060206108b185828601610841565b6109c381610c0f565b82525050565b60006109d482610c02565b6109de8185610c06565b93506109ee818560208601610c20565b6109f781610c50565b9093019392505050565b805160009060c0840190610a158582610a91565b5060208301518482036020860152610a2d82826109c9565b91505060408301518482036040860152610a4782826109c9565b91505060608301518482036060860152610a6182826109c9565b9150506080830151610a7660808601826109ba565b5060a0830151610a8960a0860182610a91565b509392505050565b6109c3816107ea565b60408082528101610aab81856109c9565b905081810360208301526108d981846109c9565b60a08082528101610ad081886109c9565b90508181036020830152610ae481876109c9565b90508181036040830152610af881866109c9565b9050610b0760608301856109ba565b610b146080830184610a91565b9695505050505050565b60208082528101610b2f8184610a01565b9392505050565b6020810161084c8284610a91565b60c08101610b528289610a91565b8181036020830152610b6481886109c9565b90508181036040830152610b7881876109c9565b90508181036060830152610b8c81866109c9565b9050610b9b60808301856109ba565b610ba860a0830184610a91565b979650505050505050565b60405181810167ffffffffffffffff81118282101715610bd257600080fd5b604052919050565b600067ffffffffffffffff821115610bf157600080fd5b506020601f91909101601f19160190565b5190565b90815260200190565b151590565b82818337506000910152565b60005b83811015610c3b578181015183820152602001610c23565b83811115610c4a576000848401525b50505050565b601f01601f191690565b610c63816107ea565b8114610c6e57600080fd5b5056fea365627a7a723158201321271d683fd032df28767f2e1b38e459c80d18cd9d222bd4fc96de57970e766c6578706572696d656e74616cf564736f6c63430005100040",
  "source": "pragma solidity ^0.5.0;\r\npragma experimental ABIEncoderV2; // Enable the experimental feature\r\n\r\ncontract UserContract {\r\n    struct User {\r\n        uint256 id;\r\n        string name;\r\n        string email;\r\n        string password; // Reminder: storing passwords like this is insecure.\r\n        bool isActive;\r\n        uint256 version;\r\n    }\r\n\r\n    uint256 private idCounter = 1;\r\n    mapping(uint256 => uint256) public latestUserVersion;\r\n    mapping(uint256 => mapping(uint256 => User)) public userRecords;\r\n\r\n    event UserCreated(\r\n        uint256 indexed id,\r\n        string email,\r\n        string password // For the sake of this example, password is included here, but it is not secure.\r\n    );\r\n\r\n    event UserUpdated(\r\n        uint256 indexed id,\r\n        string name,\r\n        string email,\r\n        string password,\r\n        bool isActive,\r\n        uint256 version\r\n    );\r\n\r\n    event UserDeactivated(\r\n        uint256 indexed id\r\n    );\r\n\r\n    function createUser(string memory email, string memory password) public {\r\n        uint256 userId = idCounter;\r\n        idCounter++; // Increment the ID counter for the next user\r\n        uint256 version = 1;\r\n        latestUserVersion[userId] = version;\r\n\r\n        User storage user = userRecords[userId][version];\r\n        user.id = userId;\r\n        user.name = \"\"; // Placeholder for user name\r\n        user.email = email;\r\n        user.password = password;\r\n        user.isActive = false; // Assuming a user is active upon creation\r\n        user.version = version;\r\n\r\n        emit UserCreated(userId, email, password);\r\n    }\r\n\r\n    function updateUser(uint256 id, string memory name, string memory email, string memory password) public {\r\n        uint256 version = latestUserVersion[id] + 1;\r\n        latestUserVersion[id] = version;\r\n\r\n        User storage user = userRecords[id][version];\r\n        user.id = id;\r\n        user.name = name;\r\n        user.email = email;\r\n        user.password = password; // Update password here\r\n        user.isActive = true;\r\n        user.version = version;\r\n\r\n        emit UserUpdated(id, name, email, password, true, version);\r\n    }\r\n\r\n    function deactivateUser(uint256 id) public {\r\n        uint256 version = latestUserVersion[id] + 1;\r\n        latestUserVersion[id] = version;\r\n\r\n        User storage user = userRecords[id][version];\r\n        user.isActive = false;\r\n        user.version = version;\r\n\r\n        emit UserDeactivated(id); // Emitting a different event for deactivation\r\n    }\r\n\r\n    function getLatestUserData(uint256 id) public view returns (User memory) {\r\n        uint256 version = latestUserVersion[id];\r\n        return userRecords[id][version];\r\n    }\r\n\r\n    // Add more functions if necessary...\r\n}\r\n",
  "sourcePath": "E:\\SJSU\\CMPE 295\\Final Project\\Universal-Vaccination-Passport-Using-Blockchain\\contracts\\UserContract.sol",
  "compiler": {
    "name": "solc",
    "version": "0.5.16+commit.9c3226ce.Emscripten.clang"
  },
  "schemaVersion": "3.4.16",
  "updatedAt": "2023-11-03T20:26:08.578Z",
  "networkType": "ethereum",
  "devdoc": {
    "methods": {}
  },
  "userdoc": {
    "methods": {}
  }
}