{
  "contractName": "UserContract",
  "abi": [
    {
      "anonymous": false,
      "inputs": [
        {
          "indexed": false,
          "internalType": "uint256",
          "name": "id",
          "type": "uint256"
        },
        {
          "indexed": false,
          "internalType": "string",
          "name": "email",
          "type": "string"
        }
      ],
      "name": "UserCreated",
      "type": "event"
    },
    {
      "anonymous": false,
      "inputs": [
        {
          "indexed": false,
          "internalType": "uint256",
          "name": "id",
          "type": "uint256"
        }
      ],
      "name": "UserDeactivated",
      "type": "event"
    },
    {
      "anonymous": false,
      "inputs": [
        {
          "indexed": false,
          "internalType": "uint256",
          "name": "id",
          "type": "uint256"
        },
        {
          "indexed": false,
          "internalType": "string",
          "name": "email",
          "type": "string"
        },
        {
          "indexed": false,
          "internalType": "bool",
          "name": "isActive",
          "type": "bool"
        }
      ],
      "name": "UserUpdated",
      "type": "event"
    },
    {
      "constant": true,
      "inputs": [
        {
          "internalType": "uint256",
          "name": "",
          "type": "uint256"
        }
      ],
      "name": "latestUserVersion",
      "outputs": [
        {
          "internalType": "uint256",
          "name": "",
          "type": "uint256"
        }
      ],
      "payable": false,
      "stateMutability": "view",
      "type": "function"
    },
    {
      "constant": true,
      "inputs": [
        {
          "internalType": "uint256",
          "name": "",
          "type": "uint256"
        },
        {
          "internalType": "uint256",
          "name": "",
          "type": "uint256"
        }
      ],
      "name": "userRecords",
      "outputs": [
        {
          "internalType": "uint256",
          "name": "id",
          "type": "uint256"
        },
        {
          "internalType": "string",
          "name": "name",
          "type": "string"
        },
        {
          "internalType": "string",
          "name": "email",
          "type": "string"
        },
        {
          "internalType": "string",
          "name": "passwordHash",
          "type": "string"
        },
        {
          "internalType": "bool",
          "name": "isActive",
          "type": "bool"
        },
        {
          "internalType": "uint256",
          "name": "version",
          "type": "uint256"
        }
      ],
      "payable": false,
      "stateMutability": "view",
      "type": "function"
    },
    {
      "constant": true,
      "inputs": [
        {
          "internalType": "string",
          "name": "email",
          "type": "string"
        }
      ],
      "name": "getEmailHash",
      "outputs": [
        {
          "internalType": "bytes32",
          "name": "",
          "type": "bytes32"
        }
      ],
      "payable": false,
      "stateMutability": "view",
      "type": "function"
    },
    {
      "constant": false,
      "inputs": [
        {
          "internalType": "string",
          "name": "email",
          "type": "string"
        },
        {
          "internalType": "string",
          "name": "password",
          "type": "string"
        }
      ],
      "name": "createUser",
      "outputs": [],
      "payable": false,
      "stateMutability": "nonpayable",
      "type": "function"
    },
    {
      "constant": false,
      "inputs": [
        {
          "internalType": "uint256",
          "name": "id",
          "type": "uint256"
        },
        {
          "internalType": "string",
          "name": "name",
          "type": "string"
        },
        {
          "internalType": "string",
          "name": "email",
          "type": "string"
        },
        {
          "internalType": "string",
          "name": "password",
          "type": "string"
        }
      ],
      "name": "updateUser",
      "outputs": [],
      "payable": false,
      "stateMutability": "nonpayable",
      "type": "function"
    },
    {
      "constant": false,
      "inputs": [
        {
          "internalType": "uint256",
          "name": "id",
          "type": "uint256"
        }
      ],
      "name": "deactivateUser",
      "outputs": [],
      "payable": false,
      "stateMutability": "nonpayable",
      "type": "function"
    },
    {
      "constant": true,
      "inputs": [
        {
          "internalType": "uint256",
          "name": "id",
          "type": "uint256"
        }
      ],
      "name": "getLatestUserData",
      "outputs": [
        {
          "components": [
            {
              "internalType": "uint256",
              "name": "id",
              "type": "uint256"
            },
            {
              "internalType": "string",
              "name": "name",
              "type": "string"
            },
            {
              "internalType": "string",
              "name": "email",
              "type": "string"
            },
            {
              "internalType": "string",
              "name": "passwordHash",
              "type": "string"
            },
            {
              "internalType": "bool",
              "name": "isActive",
              "type": "bool"
            },
            {
              "internalType": "uint256",
              "name": "version",
              "type": "uint256"
            }
          ],
          "internalType": "struct UserContract.User",
          "name": "",
          "type": "tuple"
        }
      ],
      "payable": false,
      "stateMutability": "view",
      "type": "function"
    }
  ],
  "bytecode": "0x6080604052600160005534801561001557600080fd5b50610e7c806100256000396000f3fe608060405234801561001057600080fd5b506004361061007d5760003560e01c8063a1fd54ee1161005b578063a1fd54ee146100bd578063ba2798eb146100eb578063d188efd81461010b578063f6bd53781461012b5761007d565b80636a2b1a001461008257806387b162b514610097578063975a584a146100aa575b600080fd5b610095610090366004610a19565b61013e565b005b6100956100a53660046109b0565b6101bb565b6100956100b8366004610a37565b6102e4565b6100d06100cb366004610ae0565b6103af565b6040516100e296959493929190610d07565b60405180910390f35b6100fe6100f9366004610a19565b61058f565b6040516100e29190610c89565b61011e610119366004610a19565b6105a1565b6040516100e29190610ca7565b6100fe610139366004610973565b6107b1565b6000818152600260209081526040808320805460010190819055600383528184208185529092529182902060048101805460ff191690556005810182905591519091907ff788abc9a673e15ab3b48d5589668ca7adc0cd0edc6cf70ecdaede82c4167ae5906101ae908590610c89565b60405180910390a1505050565b60006101c6836107c2565b600081815260016020526040902054909150156101fe5760405162461bcd60e51b81526004016101f590610c97565b60405180910390fd5b60008054600180820183558383526020818152604080852084905583855260028252808520839055600382528085208386528252808520848155815192830191829052918590529293919290916102589183850191610841565b50855161026e9060028301906020890190610841565b50610278856107f2565b805161028e916003840191602090910190610841565b5060048101805460ff19169055600160058201556040517fee305ea110dac8054a0415771cedeb3372a69ef1c3916abb2f5e1b3658d77c0e906102d49085908990610cb8565b60405180910390a1505050505050565b6000848152600260209081526040808320805460019081019182905560038452828520828652845291909320878155865190926103279284019190880190610841565b50835161033d9060028301906020870190610841565b50610347836107f2565b805161035d916003840191602090910190610841565b5060048101805460ff191660011790819055600582018390556040517f3b1d84375b535175aab79f858715d403189c46cb2d95a7c46ef93ad86fc6e97e916102d4918991889160ff9190911690610cd8565b60036020908152600092835260408084208252918352918190208054600180830180548551600293821615610100026000190190911692909204601f81018790048702830187019095528482529194929390928301828280156104535780601f1061042857610100808354040283529160200191610453565b820191906000526020600020905b81548152906001019060200180831161043657829003601f168201915b50505060028085018054604080516020601f60001961010060018716150201909416959095049283018590048502810185019091528181529596959450909250908301828280156104e55780601f106104ba576101008083540402835291602001916104e5565b820191906000526020600020905b8154815290600101906020018083116104c857829003601f168201915b5050505060038301805460408051602060026001851615610100026000190190941693909304601f81018490048402820184019092528181529495949350908301828280156105755780601f1061054a57610100808354040283529160200191610575565b820191906000526020600020905b81548152906001019060200180831161055857829003601f168201915b505050506004830154600590930154919260ff1691905086565b60026020526000908152604090205481565b6105a96108bf565b60008281526002602081815260408084205460038352818520818652835293819020815160c081018352815481526001808301805485519281161561010002600019011696909604601f81018690048602820186019094528381529094919385810193919291908301828280156106615780601f1061063657610100808354040283529160200191610661565b820191906000526020600020905b81548152906001019060200180831161064457829003601f168201915b5050509183525050600282810180546040805160206001841615610100026000190190931694909404601f810183900483028501830190915280845293810193908301828280156106f35780601f106106c8576101008083540402835291602001916106f3565b820191906000526020600020905b8154815290600101906020018083116106d657829003601f168201915b505050918352505060038201805460408051602060026001851615610100026000190190941693909304601f81018490048402820184019092528181529382019392918301828280156107875780601f1061075c57610100808354040283529160200191610787565b820191906000526020600020905b81548152906001019060200180831161076a57829003601f168201915b5050509183525050600482015460ff16151560208201526005909101546040909101529392505050565b60006107bc826107c2565b92915050565b6000816040516020016107d59190610c76565b604051602081830303815290604052805190602001209050919050565b6060816040516020016108059190610c76565b6040516020818303038152906040528051906020012060405160200161082b9190610c61565b6040516020818303038152906040529050919050565b828054600181600116156101000203166002900490600052602060002090601f016020900481019282601f1061088257805160ff19168380011785556108af565b828001600101855582156108af579182015b828111156108af578251825591602001919060010190610894565b506108bb9291506108f7565b5090565b6040518060c0016040528060008152602001606081526020016060815260200160608152602001600015158152602001600081525090565b61091191905b808211156108bb57600081556001016108fd565b90565b600082601f83011261092557600080fd5b813561093861093382610d9d565b610d76565b9150808252602083016020830185838301111561095457600080fd5b61095f838284610ddc565b50505092915050565b80356107bc81610e22565b60006020828403121561098557600080fd5b813567ffffffffffffffff81111561099c57600080fd5b6109a884828501610914565b949350505050565b600080604083850312156109c357600080fd5b823567ffffffffffffffff8111156109da57600080fd5b6109e685828601610914565b925050602083013567ffffffffffffffff811115610a0357600080fd5b610a0f85828601610914565b9150509250929050565b600060208284031215610a2b57600080fd5b60006109a88484610968565b60008060008060808587031215610a4d57600080fd5b6000610a598787610968565b945050602085013567ffffffffffffffff811115610a7657600080fd5b610a8287828801610914565b935050604085013567ffffffffffffffff811115610a9f57600080fd5b610aab87828801610914565b925050606085013567ffffffffffffffff811115610ac857600080fd5b610ad487828801610914565b91505092959194509250565b60008060408385031215610af357600080fd5b6000610aff8585610968565b9250506020610a0f85828601610968565b610b1981610dd7565b82525050565b610b1981610911565b610b19610b3482610911565b610911565b6000610b4482610dc5565b610b4e8185610dc9565b9350610b5e818560208601610de8565b610b6781610e18565b9093019392505050565b6000610b7c82610dc5565b610b868185610dd2565b9350610b96818560208601610de8565b9290920192915050565b6000610bad601583610dc9565b7422b6b0b4b61030b63932b0b23c9034b7103ab9b29760591b815260200192915050565b805160009060c0840190610be58582610b1f565b5060208301518482036020860152610bfd8282610b39565b91505060408301518482036040860152610c178282610b39565b91505060608301518482036060860152610c318282610b39565b9150506080830151610c466080860182610b10565b5060a0830151610c5960a0860182610b1f565b509392505050565b6000610c6d8284610b28565b50602001919050565b6000610c828284610b71565b9392505050565b602081016107bc8284610b1f565b602080825281016107bc81610ba0565b60208082528101610c828184610bd1565b60408101610cc68285610b1f565b81810360208301526109a88184610b39565b60608101610ce68286610b1f565b8181036020830152610cf88185610b39565b90506109a86040830184610b10565b60c08101610d158289610b1f565b8181036020830152610d278188610b39565b90508181036040830152610d3b8187610b39565b90508181036060830152610d4f8186610b39565b9050610d5e6080830185610b10565b610d6b60a0830184610b1f565b979650505050505050565b60405181810167ffffffffffffffff81118282101715610d9557600080fd5b604052919050565b600067ffffffffffffffff821115610db457600080fd5b506020601f91909101601f19160190565b5190565b90815260200190565b919050565b151590565b82818337506000910152565b60005b83811015610e03578181015183820152602001610deb565b83811115610e12576000848401525b50505050565b601f01601f191690565b610e2b81610911565b8114610e3657600080fd5b5056fea365627a7a72315820de93f89ca0d17fdc4845580079abf585715a3d877377412720f6d8d10aab24c66c6578706572696d656e74616cf564736f6c63430005100040",
  "source": "pragma solidity ^0.5.0;\r\npragma experimental ABIEncoderV2; // Enable the experimental feature\r\n\r\ncontract UserContract {\r\n    struct User {\r\n        uint256 id;\r\n        string name;\r\n        string email;\r\n        string passwordHash; \r\n        bool isActive;\r\n        uint256 version;\r\n    }\r\n\r\n    uint256 private idCounter = 1;\r\n    mapping(bytes32 => uint256) private emailToId; // Maps hashed emails to user IDs\r\n    mapping(uint256 => uint256) public latestUserVersion;\r\n    mapping(uint256 => mapping(uint256 => User)) public userRecords;\r\n\r\n    event UserCreated(uint256 id, string email);\r\n    event UserUpdated(uint256 id, string email, bool isActive);\r\n    event UserDeactivated(uint256 id);\r\n\r\n    // Helper function to hash the email\r\n    function hashEmail(string memory email) private pure returns (bytes32) {\r\n        return keccak256(abi.encodePacked(email));\r\n    }\r\n\r\n    function getEmailHash(string memory email) public view returns (bytes32) {\r\n    return hashEmail(email);\r\n    }\r\n\r\n    function hashPassword(string memory password) private pure returns (string memory) {\r\n        return string(abi.encodePacked(keccak256(abi.encodePacked(password))));\r\n    }\r\n\r\n\r\n    function createUser(string memory email, string memory password) public {\r\n\r\n        bytes32 emailHash = hashEmail(email);\r\n\r\n        // Check if the email is already in use\r\n        require(emailToId[emailHash] == 0, \"Email already in use.\");\r\n\r\n        uint256 userId = idCounter++;\r\n        emailToId[emailHash] = userId;\r\n        uint256 version = 1;\r\n        latestUserVersion[userId] = version;\r\n\r\n        User storage user = userRecords[userId][1];\r\n        user.id = userId;\r\n        user.name = \"\"; // Placeholder for user name\r\n        user.email = email;\r\n        user.passwordHash = hashPassword(password);\r\n        user.isActive = false; // Assuming a user is inactive upon creation\r\n        user.version = 1;\r\n\r\n        emit UserCreated(userId, email);\r\n    }\r\n\r\n    function updateUser(uint256 id, string memory name, string memory email, string memory password) public {\r\n        uint256 version = latestUserVersion[id] + 1;\r\n        latestUserVersion[id] = version;\r\n\r\n        User storage user = userRecords[id][version];\r\n        user.id = id;\r\n        user.name = name;\r\n        user.email = email;\r\n        user.passwordHash = hashPassword(password);\r\n        user.isActive = true;\r\n        user.version = version;\r\n\r\n        emit UserUpdated(id, email, user.isActive);\r\n    }\r\n\r\n    function deactivateUser(uint256 id) public {\r\n        uint256 version = latestUserVersion[id] + 1;\r\n        latestUserVersion[id] = version;\r\n\r\n        User storage user = userRecords[id][version];\r\n        user.isActive = false;\r\n        user.version = version;\r\n\r\n        emit UserDeactivated(id); // Emitting a different event for deactivation\r\n    }\r\n\r\n    function getLatestUserData(uint256 id) public view returns (User memory) {\r\n        uint256 version = latestUserVersion[id];\r\n        return userRecords[id][version];\r\n    }\r\n\r\n}\r\n",
  "sourcePath": "E:\\SJSU\\CMPE 295\\Final Project\\Universal-Vaccination-Passport-Using-Blockchain\\contracts\\UserContract.sol",
  "compiler": {
    "name": "solc",
    "version": "0.5.16+commit.9c3226ce.Emscripten.clang"
  },
  "schemaVersion": "3.4.16",
  "updatedAt": "2023-11-03T22:16:35.255Z",
  "networkType": "ethereum",
  "devdoc": {
    "methods": {}
  },
  "userdoc": {
    "methods": {}
  }
}