{
  "contractName": "UserContract",
  "abi": [
    {
      "anonymous": false,
      "inputs": [
        {
          "indexed": false,
          "internalType": "uint256",
          "name": "id",
          "type": "uint256"
        },
        {
          "indexed": false,
          "internalType": "string",
          "name": "email",
          "type": "string"
        }
      ],
      "name": "UserCreated",
      "type": "event"
    },
    {
      "anonymous": false,
      "inputs": [
        {
          "indexed": false,
          "internalType": "uint256",
          "name": "id",
          "type": "uint256"
        }
      ],
      "name": "UserDeactivated",
      "type": "event"
    },
    {
      "anonymous": false,
      "inputs": [
        {
          "indexed": false,
          "internalType": "uint256",
          "name": "id",
          "type": "uint256"
        },
        {
          "indexed": false,
          "internalType": "string",
          "name": "email",
          "type": "string"
        },
        {
          "indexed": false,
          "internalType": "bool",
          "name": "isActive",
          "type": "bool"
        }
      ],
      "name": "UserUpdated",
      "type": "event"
    },
    {
      "constant": true,
      "inputs": [
        {
          "internalType": "uint256",
          "name": "",
          "type": "uint256"
        }
      ],
      "name": "latestUserVersion",
      "outputs": [
        {
          "internalType": "uint256",
          "name": "",
          "type": "uint256"
        }
      ],
      "payable": false,
      "stateMutability": "view",
      "type": "function"
    },
    {
      "constant": true,
      "inputs": [
        {
          "internalType": "uint256",
          "name": "",
          "type": "uint256"
        },
        {
          "internalType": "uint256",
          "name": "",
          "type": "uint256"
        }
      ],
      "name": "userRecords",
      "outputs": [
        {
          "internalType": "uint256",
          "name": "id",
          "type": "uint256"
        },
        {
          "internalType": "string",
          "name": "name",
          "type": "string"
        },
        {
          "internalType": "string",
          "name": "email",
          "type": "string"
        },
        {
          "internalType": "string",
          "name": "passwordHash",
          "type": "string"
        },
        {
          "internalType": "bool",
          "name": "isActive",
          "type": "bool"
        },
        {
          "internalType": "uint256",
          "name": "version",
          "type": "uint256"
        }
      ],
      "payable": false,
      "stateMutability": "view",
      "type": "function"
    },
    {
      "constant": true,
      "inputs": [
        {
          "internalType": "string",
          "name": "email",
          "type": "string"
        }
      ],
      "name": "getEmailHash",
      "outputs": [
        {
          "internalType": "bytes32",
          "name": "",
          "type": "bytes32"
        }
      ],
      "payable": false,
      "stateMutability": "view",
      "type": "function"
    },
    {
      "constant": true,
      "inputs": [
        {
          "internalType": "bytes32",
          "name": "emailHash",
          "type": "bytes32"
        }
      ],
      "name": "getUserIdByEmail",
      "outputs": [
        {
          "internalType": "uint256",
          "name": "",
          "type": "uint256"
        }
      ],
      "payable": false,
      "stateMutability": "view",
      "type": "function"
    },
    {
      "constant": false,
      "inputs": [
        {
          "internalType": "string",
          "name": "email",
          "type": "string"
        },
        {
          "internalType": "string",
          "name": "password",
          "type": "string"
        }
      ],
      "name": "createUser",
      "outputs": [],
      "payable": false,
      "stateMutability": "nonpayable",
      "type": "function"
    },
    {
      "constant": false,
      "inputs": [
        {
          "internalType": "uint256",
          "name": "id",
          "type": "uint256"
        },
        {
          "internalType": "string",
          "name": "name",
          "type": "string"
        },
        {
          "internalType": "string",
          "name": "email",
          "type": "string"
        },
        {
          "internalType": "string",
          "name": "password",
          "type": "string"
        }
      ],
      "name": "updateUser",
      "outputs": [],
      "payable": false,
      "stateMutability": "nonpayable",
      "type": "function"
    },
    {
      "constant": false,
      "inputs": [
        {
          "internalType": "uint256",
          "name": "id",
          "type": "uint256"
        }
      ],
      "name": "deactivateUser",
      "outputs": [],
      "payable": false,
      "stateMutability": "nonpayable",
      "type": "function"
    },
    {
      "constant": true,
      "inputs": [
        {
          "internalType": "uint256",
          "name": "id",
          "type": "uint256"
        }
      ],
      "name": "getLatestUserData",
      "outputs": [
        {
          "components": [
            {
              "internalType": "uint256",
              "name": "id",
              "type": "uint256"
            },
            {
              "internalType": "string",
              "name": "name",
              "type": "string"
            },
            {
              "internalType": "string",
              "name": "email",
              "type": "string"
            },
            {
              "internalType": "string",
              "name": "passwordHash",
              "type": "string"
            },
            {
              "internalType": "bool",
              "name": "isActive",
              "type": "bool"
            },
            {
              "internalType": "uint256",
              "name": "version",
              "type": "uint256"
            }
          ],
          "internalType": "struct UserContract.User",
          "name": "",
          "type": "tuple"
        }
      ],
      "payable": false,
      "stateMutability": "view",
      "type": "function"
    }
  ],
  "bytecode": "0x6080604052600160005534801561001557600080fd5b50610eac806100256000396000f3fe608060405234801561001057600080fd5b50600436106100885760003560e01c8063a1fd54ee1161005b578063a1fd54ee146100f1578063ba2798eb14610116578063d188efd814610129578063f6bd53781461014957610088565b80630bd860591461008d5780636a2b1a00146100b657806387b162b5146100cb578063975a584a146100de575b600080fd5b6100a061009b3660046109a3565b61015c565b6040516100ad9190610cb9565b60405180910390f35b6100c96100c43660046109a3565b61016e565b005b6100c96100d93660046109fe565b6101eb565b6100c96100ec366004610a67565b610314565b6101046100ff366004610b10565b6103df565b6040516100ad96959493929190610d37565b6100a06101243660046109a3565b6105bf565b61013c6101373660046109a3565b6105d1565b6040516100ad9190610cd7565b6100a06101573660046109c9565b6107e1565b60009081526001602052604090205490565b6000818152600260209081526040808320805460010190819055600383528184208185529092529182902060048101805460ff191690556005810182905591519091907ff788abc9a673e15ab3b48d5589668ca7adc0cd0edc6cf70ecdaede82c4167ae5906101de908590610cb9565b60405180910390a1505050565b60006101f6836107f2565b6000818152600160205260409020549091501561022e5760405162461bcd60e51b815260040161022590610cc7565b60405180910390fd5b60008054600180820183558383526020818152604080852084905583855260028252808520839055600382528085208386528252808520848155815192830191829052918590529293919290916102889183850191610871565b50855161029e9060028301906020890190610871565b506102a885610822565b80516102be916003840191602090910190610871565b5060048101805460ff19169055600160058201556040517fee305ea110dac8054a0415771cedeb3372a69ef1c3916abb2f5e1b3658d77c0e906103049085908990610ce8565b60405180910390a1505050505050565b6000848152600260209081526040808320805460019081019182905560038452828520828652845291909320878155865190926103579284019190880190610871565b50835161036d9060028301906020870190610871565b5061037783610822565b805161038d916003840191602090910190610871565b5060048101805460ff191660011790819055600582018390556040517f3b1d84375b535175aab79f858715d403189c46cb2d95a7c46ef93ad86fc6e97e91610304918991889160ff9190911690610d08565b60036020908152600092835260408084208252918352918190208054600180830180548551600293821615610100026000190190911692909204601f81018790048702830187019095528482529194929390928301828280156104835780601f1061045857610100808354040283529160200191610483565b820191906000526020600020905b81548152906001019060200180831161046657829003601f168201915b50505060028085018054604080516020601f60001961010060018716150201909416959095049283018590048502810185019091528181529596959450909250908301828280156105155780601f106104ea57610100808354040283529160200191610515565b820191906000526020600020905b8154815290600101906020018083116104f857829003601f168201915b5050505060038301805460408051602060026001851615610100026000190190941693909304601f81018490048402820184019092528181529495949350908301828280156105a55780601f1061057a576101008083540402835291602001916105a5565b820191906000526020600020905b81548152906001019060200180831161058857829003601f168201915b505050506004830154600590930154919260ff1691905086565b60026020526000908152604090205481565b6105d96108ef565b60008281526002602081815260408084205460038352818520818652835293819020815160c081018352815481526001808301805485519281161561010002600019011696909604601f81018690048602820186019094528381529094919385810193919291908301828280156106915780601f1061066657610100808354040283529160200191610691565b820191906000526020600020905b81548152906001019060200180831161067457829003601f168201915b5050509183525050600282810180546040805160206001841615610100026000190190931694909404601f810183900483028501830190915280845293810193908301828280156107235780601f106106f857610100808354040283529160200191610723565b820191906000526020600020905b81548152906001019060200180831161070657829003601f168201915b505050918352505060038201805460408051602060026001851615610100026000190190941693909304601f81018490048402820184019092528181529382019392918301828280156107b75780601f1061078c576101008083540402835291602001916107b7565b820191906000526020600020905b81548152906001019060200180831161079a57829003601f168201915b5050509183525050600482015460ff16151560208201526005909101546040909101529392505050565b60006107ec826107f2565b92915050565b6000816040516020016108059190610ca6565b604051602081830303815290604052805190602001209050919050565b6060816040516020016108359190610ca6565b6040516020818303038152906040528051906020012060405160200161085b9190610c91565b6040516020818303038152906040529050919050565b828054600181600116156101000203166002900490600052602060002090601f016020900481019282601f106108b257805160ff19168380011785556108df565b828001600101855582156108df579182015b828111156108df5782518255916020019190600101906108c4565b506108eb929150610927565b5090565b6040518060c0016040528060008152602001606081526020016060815260200160608152602001600015158152602001600081525090565b61094191905b808211156108eb576000815560010161092d565b90565b80356107ec81610e52565b600082601f83011261096057600080fd5b813561097361096e82610dcd565b610da6565b9150808252602083016020830185838301111561098f57600080fd5b61099a838284610e0c565b50505092915050565b6000602082840312156109b557600080fd5b60006109c18484610944565b949350505050565b6000602082840312156109db57600080fd5b813567ffffffffffffffff8111156109f257600080fd5b6109c18482850161094f565b60008060408385031215610a1157600080fd5b823567ffffffffffffffff811115610a2857600080fd5b610a348582860161094f565b925050602083013567ffffffffffffffff811115610a5157600080fd5b610a5d8582860161094f565b9150509250929050565b60008060008060808587031215610a7d57600080fd5b6000610a898787610944565b945050602085013567ffffffffffffffff811115610aa657600080fd5b610ab28782880161094f565b935050604085013567ffffffffffffffff811115610acf57600080fd5b610adb8782880161094f565b925050606085013567ffffffffffffffff811115610af857600080fd5b610b048782880161094f565b91505092959194509250565b60008060408385031215610b2357600080fd5b6000610b2f8585610944565b9250506020610a5d85828601610944565b610b4981610e07565b82525050565b610b4981610941565b610b49610b6482610941565b610941565b6000610b7482610df5565b610b7e8185610df9565b9350610b8e818560208601610e18565b610b9781610e48565b9093019392505050565b6000610bac82610df5565b610bb68185610e02565b9350610bc6818560208601610e18565b9290920192915050565b6000610bdd601583610df9565b7422b6b0b4b61030b63932b0b23c9034b7103ab9b29760591b815260200192915050565b805160009060c0840190610c158582610b4f565b5060208301518482036020860152610c2d8282610b69565b91505060408301518482036040860152610c478282610b69565b91505060608301518482036060860152610c618282610b69565b9150506080830151610c766080860182610b40565b5060a0830151610c8960a0860182610b4f565b509392505050565b6000610c9d8284610b58565b50602001919050565b6000610cb28284610ba1565b9392505050565b602081016107ec8284610b4f565b602080825281016107ec81610bd0565b60208082528101610cb28184610c01565b60408101610cf68285610b4f565b81810360208301526109c18184610b69565b60608101610d168286610b4f565b8181036020830152610d288185610b69565b90506109c16040830184610b40565b60c08101610d458289610b4f565b8181036020830152610d578188610b69565b90508181036040830152610d6b8187610b69565b90508181036060830152610d7f8186610b69565b9050610d8e6080830185610b40565b610d9b60a0830184610b4f565b979650505050505050565b60405181810167ffffffffffffffff81118282101715610dc557600080fd5b604052919050565b600067ffffffffffffffff821115610de457600080fd5b506020601f91909101601f19160190565b5190565b90815260200190565b919050565b151590565b82818337506000910152565b60005b83811015610e33578181015183820152602001610e1b565b83811115610e42576000848401525b50505050565b601f01601f191690565b610e5b81610941565b8114610e6657600080fd5b5056fea365627a7a7231582022ae053bd7e92681b56b57585870cdca214cb992af338ddafcf243086561810c6c6578706572696d656e74616cf564736f6c63430005100040",
  "source": "pragma solidity ^0.5.0;\npragma experimental ABIEncoderV2; // Enable the experimental feature\n\ncontract UserContract {\n    struct User {\n        uint256 id;\n        string name;\n        string email;\n        string passwordHash; \n        bool isActive;\n        uint256 version;\n    }\n\n    uint256 private idCounter = 1;\n    mapping(bytes32 => uint256) private emailToId; // Maps hashed emails to user IDs\n    mapping(uint256 => uint256) public latestUserVersion;\n    mapping(uint256 => mapping(uint256 => User)) public userRecords;\n\n    event UserCreated(uint256 id, string email);\n    event UserUpdated(uint256 id, string email, bool isActive);\n    event UserDeactivated(uint256 id);\n\n    // Helper function to hash the email\n    function hashEmail(string memory email) private pure returns (bytes32) {\n        return keccak256(abi.encodePacked(email));\n    }\n\n    function getEmailHash(string memory email) public view returns (bytes32) {\n    return hashEmail(email);\n    }\n\n    function getUserIdByEmail(bytes32 emailHash) public view returns (uint256) {\n    return emailToId[emailHash];\n    }\n\n    function hashPassword(string memory password) private pure returns (string memory) {\n        return string(abi.encodePacked(keccak256(abi.encodePacked(password))));\n    }\n\n\n    function createUser(string memory email, string memory password) public {\n\n        bytes32 emailHash = hashEmail(email);\n\n        // Check if the email is already in use\n        require(emailToId[emailHash] == 0, \"Email already in use.\");\n\n        uint256 userId = idCounter++;\n        emailToId[emailHash] = userId;\n        uint256 version = 1;\n        latestUserVersion[userId] = version;\n\n        User storage user = userRecords[userId][1];\n        user.id = userId;\n        user.name = \"\"; // Placeholder for user name\n        user.email = email;\n        user.passwordHash = hashPassword(password);\n        user.isActive = false; // Assuming a user is inactive upon creation\n        user.version = 1;\n\n        emit UserCreated(userId, email);\n    }\n\n    function updateUser(uint256 id, string memory name, string memory email, string memory password) public {\n        uint256 version = latestUserVersion[id] + 1;\n        latestUserVersion[id] = version;\n\n        User storage user = userRecords[id][version];\n        user.id = id;\n        user.name = name;\n        user.email = email;\n        user.passwordHash = hashPassword(password);\n        user.isActive = true;\n        user.version = version;\n\n        emit UserUpdated(id, email, user.isActive);\n    }\n\n    function deactivateUser(uint256 id) public {\n        uint256 version = latestUserVersion[id] + 1;\n        latestUserVersion[id] = version;\n\n        User storage user = userRecords[id][version];\n        user.isActive = false;\n        user.version = version;\n\n        emit UserDeactivated(id); // Emitting a different event for deactivation\n    }\n\n    function getLatestUserData(uint256 id) public view returns (User memory) {\n        uint256 version = latestUserVersion[id];\n        return userRecords[id][version];\n    }\n\n}\n",
  "sourcePath": "/Users/philliphnguyen/Desktop/Universal-Vaccination-Passport-Using-Blockchain/contracts/UserContract.sol",
  "compiler": {
    "name": "solc",
    "version": "0.5.16+commit.9c3226ce.Emscripten.clang"
  },
  "schemaVersion": "3.4.16",
  "updatedAt": "2023-12-01T23:42:49.997Z",
  "networkType": "ethereum",
  "devdoc": {
    "methods": {}
  },
  "userdoc": {
    "methods": {}
  }
}