{
  "contractName": "VaccinationRecord",
  "abi": [
    {
      "inputs": [],
      "payable": false,
      "stateMutability": "nonpayable",
      "type": "constructor"
    },
    {
      "anonymous": false,
      "inputs": [
        {
          "indexed": false,
          "internalType": "uint256",
          "name": "id",
          "type": "uint256"
        },
        {
          "indexed": false,
          "internalType": "string",
          "name": "name",
          "type": "string"
        },
        {
          "indexed": false,
          "internalType": "string",
          "name": "dateOfFirstDose",
          "type": "string"
        },
        {
          "indexed": false,
          "internalType": "string",
          "name": "dateOfSecondDose",
          "type": "string"
        },
        {
          "indexed": false,
          "internalType": "string",
          "name": "typeOfVaccine",
          "type": "string"
        },
        {
          "indexed": false,
          "internalType": "string",
          "name": "email",
          "type": "string"
        },
        {
          "indexed": false,
          "internalType": "string",
          "name": "content",
          "type": "string"
        }
      ],
      "name": "RecordCreated",
      "type": "event"
    },
    {
      "anonymous": false,
      "inputs": [
        {
          "indexed": false,
          "internalType": "uint256",
          "name": "id",
          "type": "uint256"
        },
        {
          "indexed": false,
          "internalType": "string",
          "name": "name",
          "type": "string"
        },
        {
          "indexed": false,
          "internalType": "string",
          "name": "dateOfFirstDose",
          "type": "string"
        },
        {
          "indexed": false,
          "internalType": "string",
          "name": "dateOfSecondDose",
          "type": "string"
        },
        {
          "indexed": false,
          "internalType": "string",
          "name": "typeOfVaccine",
          "type": "string"
        },
        {
          "indexed": false,
          "internalType": "string",
          "name": "email",
          "type": "string"
        },
        {
          "indexed": false,
          "internalType": "string",
          "name": "content",
          "type": "string"
        }
      ],
      "name": "RecordFetched",
      "type": "event"
    },
    {
      "constant": true,
      "inputs": [],
      "name": "recordCount",
      "outputs": [
        {
          "internalType": "uint256",
          "name": "",
          "type": "uint256"
        }
      ],
      "payable": false,
      "stateMutability": "view",
      "type": "function"
    },
    {
      "constant": true,
      "inputs": [
        {
          "internalType": "uint256",
          "name": "",
          "type": "uint256"
        }
      ],
      "name": "vaccinationRecordMappings",
      "outputs": [
        {
          "internalType": "uint256",
          "name": "id",
          "type": "uint256"
        },
        {
          "internalType": "string",
          "name": "name",
          "type": "string"
        },
        {
          "internalType": "string",
          "name": "dateOfFirstDose",
          "type": "string"
        },
        {
          "internalType": "string",
          "name": "dateOfSecondDose",
          "type": "string"
        },
        {
          "internalType": "string",
          "name": "typeOfVaccine",
          "type": "string"
        },
        {
          "internalType": "string",
          "name": "email",
          "type": "string"
        },
        {
          "internalType": "string",
          "name": "content",
          "type": "string"
        }
      ],
      "payable": false,
      "stateMutability": "view",
      "type": "function"
    },
    {
      "constant": false,
      "inputs": [
        {
          "internalType": "uint256",
          "name": "id",
          "type": "uint256"
        },
        {
          "internalType": "string",
          "name": "name",
          "type": "string"
        },
        {
          "internalType": "string",
          "name": "dateOfFirstDose",
          "type": "string"
        },
        {
          "internalType": "string",
          "name": "dateOfSecondDose",
          "type": "string"
        },
        {
          "internalType": "string",
          "name": "typeOfVaccine",
          "type": "string"
        },
        {
          "internalType": "string",
          "name": "email",
          "type": "string"
        },
        {
          "internalType": "string",
          "name": "content",
          "type": "string"
        }
      ],
      "name": "createRecord",
      "outputs": [],
      "payable": false,
      "stateMutability": "nonpayable",
      "type": "function"
    },
    {
      "constant": true,
      "inputs": [
        {
          "internalType": "string",
          "name": "email",
          "type": "string"
        }
      ],
      "name": "getRecordsByEmail",
      "outputs": [
        {
          "components": [
            {
              "internalType": "uint256",
              "name": "id",
              "type": "uint256"
            },
            {
              "internalType": "string",
              "name": "name",
              "type": "string"
            },
            {
              "internalType": "string",
              "name": "dateOfFirstDose",
              "type": "string"
            },
            {
              "internalType": "string",
              "name": "dateOfSecondDose",
              "type": "string"
            },
            {
              "internalType": "string",
              "name": "typeOfVaccine",
              "type": "string"
            },
            {
              "internalType": "string",
              "name": "email",
              "type": "string"
            },
            {
              "internalType": "string",
              "name": "content",
              "type": "string"
            }
          ],
          "internalType": "struct VaccinationRecord.VaccinationRecord[]",
          "name": "",
          "type": "tuple[]"
        }
      ],
      "payable": false,
      "stateMutability": "view",
      "type": "function"
    },
    {
      "constant": false,
      "inputs": [
        {
          "internalType": "uint256",
          "name": "id",
          "type": "uint256"
        }
      ],
      "name": "getRecord",
      "outputs": [
        {
          "components": [
            {
              "internalType": "uint256",
              "name": "id",
              "type": "uint256"
            },
            {
              "internalType": "string",
              "name": "name",
              "type": "string"
            },
            {
              "internalType": "string",
              "name": "dateOfFirstDose",
              "type": "string"
            },
            {
              "internalType": "string",
              "name": "dateOfSecondDose",
              "type": "string"
            },
            {
              "internalType": "string",
              "name": "typeOfVaccine",
              "type": "string"
            },
            {
              "internalType": "string",
              "name": "email",
              "type": "string"
            },
            {
              "internalType": "string",
              "name": "content",
              "type": "string"
            }
          ],
          "internalType": "struct VaccinationRecord.VaccinationRecord",
          "name": "record",
          "type": "tuple"
        }
      ],
      "payable": false,
      "stateMutability": "nonpayable",
      "type": "function"
    }
  ],
  "bytecode": "0x6080604052600080553480156200001557600080fd5b5060408051808201825260048152636e616d6560e01b60208083019190915282518084018452600f81526e646174654f664669727374446f736560881b8183015283518085018552601081526f646174654f665365636f6e64446f736560801b8184015284518086018652600d81526c747970654f6656616363696e6560981b81850152855180870187526005815264195b585a5b60da1b818601528651808801909752600787526618dbdb9d195b9d60ca1b94870194909452620000e89560019594906001600160e01b03620000ee16565b620004a3565b60008054600190810182556040805160e0810182528a815260208082018b81528284018b9052606083018a90526080830189905260a0830188905260c083018790528c86528482529290942081518155915180519194929362000158939085019291019062000275565b50604082015180516200017691600284019160209091019062000275565b50606082015180516200019491600384019160209091019062000275565b5060808201518051620001b291600484019160209091019062000275565b5060a08201518051620001d091600584019160209091019062000275565b5060c08201518051620001ee91600684019160209091019062000275565b50905050600282604051620002049190620003a0565b908152604051908190036020908101822080546001810182556000918252919020018890557fe06fb47048782e42e9e2c5440bb1e7da830d7c161b548ee305c1466c04dbb5f99062000264908990899089908990899089908990620003b5565b60405180910390a150505050505050565b828054600181600116156101000203166002900490600052602060002090601f016020900481019282601f10620002b857805160ff1916838001178555620002e8565b82800160010185558215620002e8579182015b82811115620002e8578251825591602001919060010190620002cb565b50620002f6929150620002fa565b5090565b6200031791905b80821115620002f6576000815560010162000301565b90565b6000620003278262000454565b62000333818562000458565b93506200034581856020860162000466565b620003508162000499565b9093019392505050565b6000620003678262000454565b62000373818562000461565b93506200038581856020860162000466565b9290920192915050565b6200039a8162000317565b82525050565b6000620003ae82846200035a565b9392505050565b60e08101620003c5828a6200038f565b8181036020830152620003d981896200031a565b90508181036040830152620003ef81886200031a565b905081810360608301526200040581876200031a565b905081810360808301526200041b81866200031a565b905081810360a08301526200043181856200031a565b905081810360c08301526200044781846200031a565b9998505050505050505050565b5190565b90815260200190565b919050565b60005b838110156200048357818101518382015260200162000469565b8381111562000493576000848401525b50505050565b601f01601f191690565b6114ef80620004b36000396000f3fe608060405234801561001057600080fd5b50600436106100575760003560e01c806303e9e6091461005c57806320a7082614610085578063342ba78a146100a55780636317dc4b146100cb578063900407bc146100e0575b600080fd5b61006f61006a366004611028565b6100f5565b60405161007c919061133d565b60405180910390f35b610098610093366004610feb565b61051b565b60405161007c919061132c565b6100b86100b3366004611028565b6109b9565b60405161007c979695949392919061135c565b6100de6100d9366004611046565b610d31565b005b6100e8610ea8565b60405161007c919061134e565b6100fd610eae565b610105610eae565b600083815260016020818152604092839020835160e0810185528154815281840180548651600296821615610100026000190190911695909504601f810185900485028601850190965285855290949193858401939092908301828280156101ae5780601f10610183576101008083540402835291602001916101ae565b820191906000526020600020905b81548152906001019060200180831161019157829003601f168201915b5050509183525050600282810180546040805160206001841615610100026000190190931694909404601f810183900483028501830190915280845293810193908301828280156102405780601f1061021557610100808354040283529160200191610240565b820191906000526020600020905b81548152906001019060200180831161022357829003601f168201915b505050918352505060038201805460408051602060026001851615610100026000190190941693909304601f81018490048402820184019092528181529382019392918301828280156102d45780601f106102a9576101008083540402835291602001916102d4565b820191906000526020600020905b8154815290600101906020018083116102b757829003601f168201915b505050918352505060048201805460408051602060026001851615610100026000190190941693909304601f81018490048402820184019092528181529382019392918301828280156103685780601f1061033d57610100808354040283529160200191610368565b820191906000526020600020905b81548152906001019060200180831161034b57829003601f168201915b505050918352505060058201805460408051602060026001851615610100026000190190941693909304601f81018490048402820184019092528181529382019392918301828280156103fc5780601f106103d1576101008083540402835291602001916103fc565b820191906000526020600020905b8154815290600101906020018083116103df57829003601f168201915b505050918352505060068201805460408051602060026001851615610100026000190190941693909304601f81018490048402820184019092528181529382019392918301828280156104905780601f1061046557610100808354040283529160200191610490565b820191906000526020600020905b81548152906001019060200180831161047357829003601f168201915b5050509190925250508151919250501561050a577f2aa0708161f5488ced1acc0ff2d512391f97c5ac58bb13773f766cec341baa91816000015182602001518360400151846060015185608001518660a001518760c001516040516104fb979695949392919061135c565b60405180910390a19050610516565b610512610eae565b9150505b919050565b60608060028360405161052e9190611320565b908152604080519182900360209081018320805480830285018301909352828452919083018282801561058057602002820191906000526020600020905b81548152602001906001019080831161056c575b50505050509050606081516040519080825280602002602001820160405280156105c457816020015b6105b1610eae565b8152602001906001900390816105a95790505b50905060005b82518110156109b157600160008483815181106105e357fe5b602002602001015181526020019081526020016000206040518060e001604052908160008201548152602001600182018054600181600116156101000203166002900480601f0160208091040260200160405190810160405280929190818152602001828054600181600116156101000203166002900480156106a75780601f1061067c576101008083540402835291602001916106a7565b820191906000526020600020905b81548152906001019060200180831161068a57829003601f168201915b5050509183525050600282810180546040805160206001841615610100026000190190931694909404601f810183900483028501830190915280845293810193908301828280156107395780601f1061070e57610100808354040283529160200191610739565b820191906000526020600020905b81548152906001019060200180831161071c57829003601f168201915b505050918352505060038201805460408051602060026001851615610100026000190190941693909304601f81018490048402820184019092528181529382019392918301828280156107cd5780601f106107a2576101008083540402835291602001916107cd565b820191906000526020600020905b8154815290600101906020018083116107b057829003601f168201915b505050918352505060048201805460408051602060026001851615610100026000190190941693909304601f81018490048402820184019092528181529382019392918301828280156108615780601f1061083657610100808354040283529160200191610861565b820191906000526020600020905b81548152906001019060200180831161084457829003601f168201915b505050918352505060058201805460408051602060026001851615610100026000190190941693909304601f81018490048402820184019092528181529382019392918301828280156108f55780601f106108ca576101008083540402835291602001916108f5565b820191906000526020600020905b8154815290600101906020018083116108d857829003601f168201915b505050918352505060068201805460408051602060026001851615610100026000190190941693909304601f81018490048402820184019092528181529382019392918301828280156109895780601f1061095e57610100808354040283529160200191610989565b820191906000526020600020905b81548152906001019060200180831161096c57829003601f168201915b50505050508152505082828151811061099e57fe5b60209081029190910101526001016105ca565b509392505050565b600160208181526000928352604092839020805481840180548651600296821615610100026000190190911695909504601f81018590048502860185019096528585529094919392909190830182828015610a555780601f10610a2a57610100808354040283529160200191610a55565b820191906000526020600020905b815481529060010190602001808311610a3857829003601f168201915b50505060028085018054604080516020601f6000196101006001871615020190941695909504928301859004850281018501909152818152959695945090925090830182828015610ae75780601f10610abc57610100808354040283529160200191610ae7565b820191906000526020600020905b815481529060010190602001808311610aca57829003601f168201915b5050505060038301805460408051602060026001851615610100026000190190941693909304601f8101849004840282018401909252818152949594935090830182828015610b775780601f10610b4c57610100808354040283529160200191610b77565b820191906000526020600020905b815481529060010190602001808311610b5a57829003601f168201915b5050505060048301805460408051602060026001851615610100026000190190941693909304601f8101849004840282018401909252818152949594935090830182828015610c075780601f10610bdc57610100808354040283529160200191610c07565b820191906000526020600020905b815481529060010190602001808311610bea57829003601f168201915b5050505060058301805460408051602060026001851615610100026000190190941693909304601f8101849004840282018401909252818152949594935090830182828015610c975780601f10610c6c57610100808354040283529160200191610c97565b820191906000526020600020905b815481529060010190602001808311610c7a57829003601f168201915b5050505060068301805460408051602060026001851615610100026000190190941693909304601f8101849004840282018401909252818152949594935090830182828015610d275780601f10610cfc57610100808354040283529160200191610d27565b820191906000526020600020905b815481529060010190602001808311610d0a57829003601f168201915b5050505050905087565b60008054600190810182556040805160e0810182528a815260208082018b81528284018b9052606083018a90526080830189905260a0830188905260c083018790528c865284825292909420815181559151805191949293610d999390850192910190610eeb565b5060408201518051610db5916002840191602090910190610eeb565b5060608201518051610dd1916003840191602090910190610eeb565b5060808201518051610ded916004840191602090910190610eeb565b5060a08201518051610e09916005840191602090910190610eeb565b5060c08201518051610e25916006840191602090910190610eeb565b50905050600282604051610e399190611320565b908152604051908190036020908101822080546001810182556000918252919020018890557fe06fb47048782e42e9e2c5440bb1e7da830d7c161b548ee305c1466c04dbb5f990610e9790899089908990899089908990899061135c565b60405180910390a150505050505050565b60005481565b6040518060e00160405280600081526020016060815260200160608152602001606081526020016060815260200160608152602001606081525090565b828054600181600116156101000203166002900490600052602060002090601f016020900481019282601f10610f2c57805160ff1916838001178555610f59565b82800160010185558215610f59579182015b82811115610f59578251825591602001919060010190610f3e565b50610f65929150610f69565b5090565b610f8391905b80821115610f655760008155600101610f6f565b90565b600082601f830112610f9757600080fd5b8135610faa610fa582611414565b6113ed565b91508082526020830160208301858383011115610fc657600080fd5b610fd183828461144f565b50505092915050565b8035610fe581611495565b92915050565b600060208284031215610ffd57600080fd5b813567ffffffffffffffff81111561101457600080fd5b61102084828501610f86565b949350505050565b60006020828403121561103a57600080fd5b60006110208484610fda565b600080600080600080600060e0888a03121561106157600080fd5b600061106d8a8a610fda565b975050602088013567ffffffffffffffff81111561108a57600080fd5b6110968a828b01610f86565b965050604088013567ffffffffffffffff8111156110b357600080fd5b6110bf8a828b01610f86565b955050606088013567ffffffffffffffff8111156110dc57600080fd5b6110e88a828b01610f86565b945050608088013567ffffffffffffffff81111561110557600080fd5b6111118a828b01610f86565b93505060a088013567ffffffffffffffff81111561112e57600080fd5b61113a8a828b01610f86565b92505060c088013567ffffffffffffffff81111561115757600080fd5b6111638a828b01610f86565b91505092959891949750929550565b600061117e838361125a565b9392505050565b600061119082611442565b61119a8185611446565b9350836020820285016111ac8561143c565b8060005b858110156111e657848403895281516111c98582611172565b94506111d48361143c565b60209a909a01999250506001016111b0565b5091979650505050505050565b60006111fe82611442565b6112088185611446565b935061121881856020860161145b565b6112218161148b565b9093019392505050565b600061123682611442565b6112408185610516565b935061125081856020860161145b565b9290920192915050565b805160009060e084019061126e8582611311565b506020830151848203602086015261128682826111f3565b915050604083015184820360408601526112a082826111f3565b915050606083015184820360608601526112ba82826111f3565b915050608083015184820360808601526112d482826111f3565b91505060a083015184820360a08601526112ee82826111f3565b91505060c083015184820360c086015261130882826111f3565b95945050505050565b61131a81610f83565b82525050565b600061117e828461122b565b6020808252810161117e8184611185565b6020808252810161117e818461125a565b60208101610fe58284611311565b60e0810161136a828a611311565b818103602083015261137c81896111f3565b9050818103604083015261139081886111f3565b905081810360608301526113a481876111f3565b905081810360808301526113b881866111f3565b905081810360a08301526113cc81856111f3565b905081810360c08301526113e081846111f3565b9998505050505050505050565b60405181810167ffffffffffffffff8111828210171561140c57600080fd5b604052919050565b600067ffffffffffffffff82111561142b57600080fd5b506020601f91909101601f19160190565b60200190565b5190565b90815260200190565b82818337506000910152565b60005b8381101561147657818101518382015260200161145e565b83811115611485576000848401525b50505050565b601f01601f191690565b61149e81610f83565b81146114a957600080fd5b5056fea365627a7a723158205f37de508db5289434d3502797427c3fecddec2dacdb8f23b9490851cf7f74326c6578706572696d656e74616cf564736f6c63430005100040",
  "source": "pragma solidity ^0.5.0;\npragma experimental ABIEncoderV2;\n\ncontract VaccinationRecord {\n  uint public recordCount = 0;\n\n  struct VaccinationRecord {\n    uint256 id;\n    string name; \n    string dateOfFirstDose;\n    string dateOfSecondDose;\n    string typeOfVaccine;\n    string email;\n    string content;\n  }\n\n  mapping(uint256 => VaccinationRecord) public vaccinationRecordMappings;\n  mapping(string => uint256[]) private emailToRecordIds; // Mapping to hold record IDs for each email\n\n  event RecordCreated(\n    uint256 id,\n    string name, \n    string dateOfFirstDose,\n    string dateOfSecondDose,\n    string typeOfVaccine,\n    string email,\n    string content\n  );\n\n  event RecordFetched(\n    uint256 id,\n    string name, \n    string dateOfFirstDose,\n    string dateOfSecondDose,\n    string typeOfVaccine,\n    string email,\n    string content\n  );\n\n  constructor() public {\n    createRecord(1, \"name\", \"dateOfFirstDose\", \"dateOfSecondDose\", \"typeOfVaccine\", \"email\", \"content\");\n  }\n\n  function createRecord(uint256 id, string memory name, string memory dateOfFirstDose, string memory dateOfSecondDose, string memory typeOfVaccine, string memory email, string memory content) public {\n    recordCount ++;\n    vaccinationRecordMappings[id] = VaccinationRecord(id, name, dateOfFirstDose, dateOfSecondDose, typeOfVaccine, email, content);\n    emailToRecordIds[email].push(id); // Associate this record ID with the email\n    emit RecordCreated(id, name, dateOfFirstDose, dateOfSecondDose, typeOfVaccine, email, content);\n  }\n\n\n  function getRecordsByEmail(string memory email) public view returns (VaccinationRecord[] memory) {\n        uint256[] memory recordIds = emailToRecordIds[email];\n        VaccinationRecord[] memory records = new VaccinationRecord[](recordIds.length);\n\n        for (uint256 i = 0; i < recordIds.length; i++) {\n            records[i] = vaccinationRecordMappings[recordIds[i]];\n        }\n\n        return records;\n    }\n\n\n  function getRecord(uint256 id) public returns(VaccinationRecord memory record){\n    VaccinationRecord memory fetchedRecord = vaccinationRecordMappings[id];\n\n    if (fetchedRecord.id > 0) {\n        emit RecordFetched(fetchedRecord.id, fetchedRecord.name, fetchedRecord.dateOfFirstDose, fetchedRecord.dateOfSecondDose, fetchedRecord.typeOfVaccine, fetchedRecord.email, fetchedRecord.content);\n        return fetchedRecord;\n    }\n\n    VaccinationRecord memory emptyRecord; \n    return emptyRecord;\n  }\n\n\n}\n",
  "sourcePath": "/Users/philliphnguyen/Desktop/Universal-Vaccination-Passport-Using-Blockchain/contracts/VaccinationRecord.sol",
  "compiler": {
    "name": "solc",
    "version": "0.5.16+commit.9c3226ce.Emscripten.clang"
  },
  "schemaVersion": "3.4.16",
  "updatedAt": "2023-11-20T22:06:24.156Z",
  "networkType": "ethereum",
  "devdoc": {
    "methods": {}
  },
  "userdoc": {
    "methods": {}
  }
}