{
  "contractName": "VaccinationRecordContract",
  "abi": [
    {
      "inputs": [],
      "payable": false,
      "stateMutability": "nonpayable",
      "type": "constructor"
    },
    {
      "anonymous": false,
      "inputs": [
        {
          "indexed": false,
          "internalType": "uint256",
          "name": "id",
          "type": "uint256"
        },
        {
          "indexed": false,
          "internalType": "string",
          "name": "name",
          "type": "string"
        },
        {
          "indexed": false,
          "internalType": "string",
          "name": "dateOfFirstDose",
          "type": "string"
        },
        {
          "indexed": false,
          "internalType": "string",
          "name": "dateOfSecondDose",
          "type": "string"
        },
        {
          "indexed": false,
          "internalType": "string",
          "name": "typeOfVaccine",
          "type": "string"
        },
        {
          "indexed": false,
          "internalType": "string",
          "name": "content",
          "type": "string"
        }
      ],
      "name": "RecordCreated",
      "type": "event"
    },
    {
      "anonymous": false,
      "inputs": [
        {
          "indexed": false,
          "internalType": "uint256",
          "name": "id",
          "type": "uint256"
        },
        {
          "indexed": false,
          "internalType": "string",
          "name": "name",
          "type": "string"
        },
        {
          "indexed": false,
          "internalType": "string",
          "name": "dateOfFirstDose",
          "type": "string"
        },
        {
          "indexed": false,
          "internalType": "string",
          "name": "dateOfSecondDose",
          "type": "string"
        },
        {
          "indexed": false,
          "internalType": "string",
          "name": "typeOfVaccine",
          "type": "string"
        },
        {
          "indexed": false,
          "internalType": "string",
          "name": "content",
          "type": "string"
        }
      ],
      "name": "RecordFetched",
      "type": "event"
    },
    {
      "constant": true,
      "inputs": [],
      "name": "recordCount",
      "outputs": [
        {
          "internalType": "uint256",
          "name": "",
          "type": "uint256"
        }
      ],
      "payable": false,
      "stateMutability": "view",
      "type": "function"
    },
    {
      "constant": true,
      "inputs": [
        {
          "internalType": "uint256",
          "name": "",
          "type": "uint256"
        }
      ],
      "name": "vaccinationRecordMappings",
      "outputs": [
        {
          "internalType": "uint256",
          "name": "id",
          "type": "uint256"
        },
        {
          "internalType": "string",
          "name": "name",
          "type": "string"
        },
        {
          "internalType": "string",
          "name": "dateOfFirstDose",
          "type": "string"
        },
        {
          "internalType": "string",
          "name": "dateOfSecondDose",
          "type": "string"
        },
        {
          "internalType": "string",
          "name": "typeOfVaccine",
          "type": "string"
        },
        {
          "internalType": "string",
          "name": "content",
          "type": "string"
        }
      ],
      "payable": false,
      "stateMutability": "view",
      "type": "function"
    },
    {
      "constant": false,
      "inputs": [
        {
          "internalType": "uint256",
          "name": "id",
          "type": "uint256"
        },
        {
          "internalType": "string",
          "name": "name",
          "type": "string"
        },
        {
          "internalType": "string",
          "name": "dateOfFirstDose",
          "type": "string"
        },
        {
          "internalType": "string",
          "name": "dateOfSecondDose",
          "type": "string"
        },
        {
          "internalType": "string",
          "name": "typeOfVaccine",
          "type": "string"
        },
        {
          "internalType": "string",
          "name": "content",
          "type": "string"
        }
      ],
      "name": "createRecord",
      "outputs": [],
      "payable": false,
      "stateMutability": "nonpayable",
      "type": "function"
    },
    {
      "constant": false,
      "inputs": [
        {
          "internalType": "uint256",
          "name": "id",
          "type": "uint256"
        }
      ],
      "name": "getRecord",
      "outputs": [
        {
          "components": [
            {
              "internalType": "uint256",
              "name": "id",
              "type": "uint256"
            },
            {
              "internalType": "string",
              "name": "name",
              "type": "string"
            },
            {
              "internalType": "string",
              "name": "dateOfFirstDose",
              "type": "string"
            },
            {
              "internalType": "string",
              "name": "dateOfSecondDose",
              "type": "string"
            },
            {
              "internalType": "string",
              "name": "typeOfVaccine",
              "type": "string"
            },
            {
              "internalType": "string",
              "name": "content",
              "type": "string"
            }
          ],
          "internalType": "struct VaccinationRecordContract.VaccinationRecord",
          "name": "record",
          "type": "tuple"
        }
      ],
      "payable": false,
      "stateMutability": "nonpayable",
      "type": "function"
    }
  ],
  "bytecode": "0x6080604052600080553480156200001557600080fd5b50620000dc6001604051806040016040528060048152602001636e616d6560e01b8152506040518060400160405280600f81526020016e646174654f664669727374446f736560881b8152506040518060400160405280601081526020016f646174654f665365636f6e64446f736560801b8152506040518060400160405280600d81526020016c747970654f6656616363696e6560981b8152506040518060400160405280600781526020016618dbdb9d195b9d60ca1b815250620000e260201b60201c565b620003d4565b60008054600190810182556040805160c08101825289815260208082018a81528284018a9052606083018990526080830188905260a083018790528b8652848252929094208151815591518051919492936200014593908501929101906200020c565b5060408201518051620001639160028401916020909101906200020c565b5060608201518051620001819160038401916020909101906200020c565b50608082015180516200019f9160048401916020909101906200020c565b5060a08201518051620001bd9160058401916020909101906200020c565b509050507f30dd71863f3d3bec8527486df8937798b1256a122ca0f90ba3b1cd728b386630868686868686604051620001fc9695949392919062000302565b60405180910390a1505050505050565b828054600181600116156101000203166002900490600052602060002090601f016020900481019282601f106200024f57805160ff19168380011785556200027f565b828001600101855582156200027f579182015b828111156200027f57825182559160200191906001019062000262565b506200028d92915062000291565b5090565b620002ae91905b808211156200028d576000815560010162000298565b90565b6000620002be826200038a565b620002ca81856200038e565b9350620002dc81856020860162000397565b620002e781620003ca565b9093019392505050565b620002fc81620002ae565b82525050565b60c08101620003128289620002f1565b8181036020830152620003268188620002b1565b905081810360408301526200033c8187620002b1565b90508181036060830152620003528186620002b1565b90508181036080830152620003688185620002b1565b905081810360a08301526200037e8184620002b1565b98975050505050505050565b5190565b90815260200190565b60005b83811015620003b45781810151838201526020016200039a565b83811115620003c4576000848401525b50505050565b601f01601f191690565b610d3e80620003e46000396000f3fe608060405234801561001057600080fd5b506004361061004c5760003560e01c806303e9e609146100515780630d602f151461007a578063342ba78a1461008f578063900407bc146100b4575b600080fd5b61006461005f366004610997565b6100c9565b6040516100719190610ba0565b60405180910390f35b61008d6100883660046109bd565b610455565b005b6100a261009d366004610997565b610573565b60405161007196959493929190610bc6565b6100bc61085b565b6040516100719190610bb8565b6100d1610861565b6100d9610861565b600083815260016020818152604092839020835160c0810185528154815281840180548651600296821615610100026000190190911695909504601f810185900485028601850190965285855290949193858401939092908301828280156101825780601f1061015757610100808354040283529160200191610182565b820191906000526020600020905b81548152906001019060200180831161016557829003601f168201915b5050509183525050600282810180546040805160206001841615610100026000190190931694909404601f810183900483028501830190915280845293810193908301828280156102145780601f106101e957610100808354040283529160200191610214565b820191906000526020600020905b8154815290600101906020018083116101f757829003601f168201915b505050918352505060038201805460408051602060026001851615610100026000190190941693909304601f81018490048402820184019092528181529382019392918301828280156102a85780601f1061027d576101008083540402835291602001916102a8565b820191906000526020600020905b81548152906001019060200180831161028b57829003601f168201915b505050918352505060048201805460408051602060026001851615610100026000190190941693909304601f810184900484028201840190925281815293820193929183018282801561033c5780601f106103115761010080835404028352916020019161033c565b820191906000526020600020905b81548152906001019060200180831161031f57829003601f168201915b505050918352505060058201805460408051602060026001851615610100026000190190941693909304601f81018490048402820184019092528181529382019392918301828280156103d05780601f106103a5576101008083540402835291602001916103d0565b820191906000526020600020905b8154815290600101906020018083116103b357829003601f168201915b50505091909252505081519192505015610444577f0ec19681a257ee92699a6cdcd77e3792b46badf6f2cd1d826aebe01ee584f7ca816000015182602001518360400151846060015185608001518660a0015160405161043596959493929190610bc6565b60405180910390a19050610450565b61044c610861565b9150505b919050565b60008054600190810182556040805160c08101825289815260208082018a81528284018a9052606083018990526080830188905260a083018790528b8652848252929094208151815591518051919492936104b69390850192910190610897565b50604082015180516104d2916002840191602090910190610897565b50606082015180516104ee916003840191602090910190610897565b506080820151805161050a916004840191602090910190610897565b5060a08201518051610526916005840191602090910190610897565b509050507f30dd71863f3d3bec8527486df8937798b1256a122ca0f90ba3b1cd728b38663086868686868660405161056396959493929190610bc6565b60405180910390a1505050505050565b600160208181526000928352604092839020805481840180548651600296821615610100026000190190911695909504601f8101859004850286018501909652858552909491939290919083018282801561060f5780601f106105e45761010080835404028352916020019161060f565b820191906000526020600020905b8154815290600101906020018083116105f257829003601f168201915b50505060028085018054604080516020601f60001961010060018716150201909416959095049283018590048502810185019091528181529596959450909250908301828280156106a15780601f10610676576101008083540402835291602001916106a1565b820191906000526020600020905b81548152906001019060200180831161068457829003601f168201915b5050505060038301805460408051602060026001851615610100026000190190941693909304601f81018490048402820184019092528181529495949350908301828280156107315780601f1061070657610100808354040283529160200191610731565b820191906000526020600020905b81548152906001019060200180831161071457829003601f168201915b5050505060048301805460408051602060026001851615610100026000190190941693909304601f81018490048402820184019092528181529495949350908301828280156107c15780601f10610796576101008083540402835291602001916107c1565b820191906000526020600020905b8154815290600101906020018083116107a457829003601f168201915b5050505060058301805460408051602060026001851615610100026000190190941693909304601f81018490048402820184019092528181529495949350908301828280156108515780601f1061082657610100808354040283529160200191610851565b820191906000526020600020905b81548152906001019060200180831161083457829003601f168201915b5050505050905086565b60005481565b6040518060c001604052806000815260200160608152602001606081526020016060815260200160608152602001606081525090565b828054600181600116156101000203166002900490600052602060002090601f016020900481019282601f106108d857805160ff1916838001178555610905565b82800160010185558215610905579182015b828111156109055782518255916020019190600101906108ea565b50610911929150610915565b5090565b61092f91905b80821115610911576000815560010161091b565b90565b600082601f83011261094357600080fd5b813561095661095182610c69565b610c42565b9150808252602083016020830185838301111561097257600080fd5b61097d838284610c9e565b50505092915050565b803561099181610ce4565b92915050565b6000602082840312156109a957600080fd5b60006109b58484610986565b949350505050565b60008060008060008060c087890312156109d657600080fd5b60006109e28989610986565b965050602087013567ffffffffffffffff8111156109ff57600080fd5b610a0b89828a01610932565b955050604087013567ffffffffffffffff811115610a2857600080fd5b610a3489828a01610932565b945050606087013567ffffffffffffffff811115610a5157600080fd5b610a5d89828a01610932565b935050608087013567ffffffffffffffff811115610a7a57600080fd5b610a8689828a01610932565b92505060a087013567ffffffffffffffff811115610aa357600080fd5b610aaf89828a01610932565b9150509295509295509295565b6000610ac782610c91565b610ad18185610c95565b9350610ae1818560208601610caa565b610aea81610cda565b9093019392505050565b805160009060c0840190610b088582610b91565b5060208301518482036020860152610b208282610abc565b91505060408301518482036040860152610b3a8282610abc565b91505060608301518482036060860152610b548282610abc565b91505060808301518482036080860152610b6e8282610abc565b91505060a083015184820360a0860152610b888282610abc565b95945050505050565b610b9a8161092f565b82525050565b60208082528101610bb18184610af4565b9392505050565b602081016109918284610b91565b60c08101610bd48289610b91565b8181036020830152610be68188610abc565b90508181036040830152610bfa8187610abc565b90508181036060830152610c0e8186610abc565b90508181036080830152610c228185610abc565b905081810360a0830152610c368184610abc565b98975050505050505050565b60405181810167ffffffffffffffff81118282101715610c6157600080fd5b604052919050565b600067ffffffffffffffff821115610c8057600080fd5b506020601f91909101601f19160190565b5190565b90815260200190565b82818337506000910152565b60005b83811015610cc5578181015183820152602001610cad565b83811115610cd4576000848401525b50505050565b601f01601f191690565b610ced8161092f565b8114610cf857600080fd5b5056fea365627a7a723158200af498e476e4524d0806fca8d38799e57026403781c01b0a2ea2d0f1120c93636c6578706572696d656e74616cf564736f6c63430005100040",
  "source": "pragma solidity ^0.5.0;\npragma experimental ABIEncoderV2;\n\ncontract VaccinationRecordContract {\n  uint public recordCount = 0;\n\n  struct VaccinationRecord {\n    uint id;\n    string name; \n    string dateOfFirstDose;\n    string dateOfSecondDose;\n    string typeOfVaccine;\n    string content;\n  }\n\n  mapping(uint => VaccinationRecord) public vaccinationRecordMappings;\n\n  event RecordCreated(\n    uint id,\n    string name, \n    string dateOfFirstDose,\n    string dateOfSecondDose,\n    string typeOfVaccine,\n    string content\n  );\n\n  event RecordFetched(\n    uint id,\n    string name, \n    string dateOfFirstDose,\n    string dateOfSecondDose,\n    string typeOfVaccine,\n    string content\n  );\n\n  constructor() public {\n    createRecord(1, \"name\", \"dateOfFirstDose\", \"dateOfSecondDose\", \"typeOfVaccine\", \"content\");\n  }\n\n  function createRecord(uint id, string memory name, string memory dateOfFirstDose, string memory dateOfSecondDose, string memory typeOfVaccine, string memory content) public {\n    recordCount ++;\n    vaccinationRecordMappings[id] = VaccinationRecord(id, name, dateOfFirstDose, dateOfSecondDose, typeOfVaccine, content);\n    emit RecordCreated(id, name, dateOfFirstDose, dateOfSecondDose, typeOfVaccine, content);\n  }\n\n\n\n  function getRecord(uint id) public returns(VaccinationRecord memory record){\n    VaccinationRecord memory fetchedRecord = vaccinationRecordMappings[id];\n\n    if (fetchedRecord.id > 0) {\n        emit RecordFetched(fetchedRecord.id, fetchedRecord.name, fetchedRecord.dateOfFirstDose, fetchedRecord.dateOfSecondDose, fetchedRecord.typeOfVaccine, fetchedRecord.content);\n        return fetchedRecord;\n    }\n\n    VaccinationRecord memory emptyRecord; \n    return emptyRecord;\n  }\n\n\n}\n",
  "sourcePath": "/home/shubhada/Desktop/Universal-Vaccination-Passport/contracts/VaccinationRecord.sol",
  "compiler": {
    "name": "solc",
    "version": "0.5.16+commit.9c3226ce.Emscripten.clang"
  },
  "schemaVersion": "3.4.7",
  "updatedAt": "2022-04-16T00:00:32.028Z",
  "devdoc": {
    "methods": {}
  },
  "userdoc": {
    "methods": {}
  }
}